{
    "blockHeight": 2172,
    "blockHash": "0000000001abec976cd3c32eb888e2e29147d02102616236e8bfbf83aceb1a05",
    "blockTime": 1454313034,
    "blockTxs": [
        "a7959c486112ffa7a1422fbc87a57dd58d0bdd1c6439ddc1916c2caa9442f054",
        "87039e311dfb46078c86cc5545bbccc0080f2f7d8602f72e2a5e728934d8386c"
    ],
    "txDetails": {
        "a7959c486112ffa7a1422fbc87a57dd58d0bdd1c6439ddc1916c2caa9442f054": {
          "hex": "01000000010000000000000000000000000000000000000000000000000000000000000000ffffffff4b027c08045710af5608fabe6d6d697fd0490a0c74d11304dc0802a33701000000006e8c43b5ab1d729ddf49578801000000000000002000000da30000000d2f6e6f64655374726174756d2f0000000002dedb17a8040000001976a914daced8b39306ebd89563574fc495c53493b3343588acf7f6052a010000001976a914f2e2812ffd7a172d463f632526f3c846bfd5144c88ac00000000",
          "txid": "a7959c486112ffa7a1422fbc87a57dd58d0bdd1c6439ddc1916c2caa9442f054",
          "version": 1,
          "locktime": 0,
          "vin": [
            {
              "coinbase": "027c08045710af5608fabe6d6d697fd0490a0c74d11304dc0802a33701000000006e8c43b5ab1d729ddf49578801000000000000002000000da30000000d2f6e6f64655374726174756d2f",
              "sequence": 0
            }
          ],
          "vout": [
            {
              "value": 200.00005086,
              "n": 0,
              "scriptPubKey": {
                "asm": "OP_DUP OP_HASH160 daced8b39306ebd89563574fc495c53493b33435 OP_EQUALVERIFY OP_CHECKSIG",
                "hex": "76a914daced8b39306ebd89563574fc495c53493b3343588ac",
                "reqSigs": 1,
                "type": "pubkeyhash",
                "addresses": [
                  "DR63e2KWN6k3KpGmLAKPnBmwLVUFmKS1zj"
                ]
              }
            },
            {
              "value": 50.00001271,
              "n": 1,
              "scriptPubKey": {
                "asm": "OP_DUP OP_HASH160 f2e2812ffd7a172d463f632526f3c846bfd5144c OP_EQUALVERIFY OP_CHECKSIG",
                "hex": "76a914f2e2812ffd7a172d463f632526f3c846bfd5144c88ac",
                "reqSigs": 1,
                "type": "pubkeyhash",
                "addresses": [
                  "DTHMQVvsGaDdMEKkLqw7XHTzjvXe734dma"
                ]
              }
            }
          ],
          "blockhash": "0000000001abec976cd3c32eb888e2e29147d02102616236e8bfbf83aceb1a05",
          "time": 1454313034,
          "blocktime": 1454313034
        },
        "87039e311dfb46078c86cc5545bbccc0080f2f7d8602f72e2a5e728934d8386c": {
          "hex": "0100000001f69cfede20072aee61789eb5f65bd247aba738f4208dc3f8af75e4a9a59fe515000000006a4730440220430596867e0d83e46cfd7fd1da3fa45d853886782fd86e10d585b55c4df3459f02206daffdc1ca3c7e81150a3742332eda6efc5652e6693f4c1cb7408108b9ec66550121037c3581b0b7f09cf7286f351265a5cbb9b7f92f7e956297d26f455481b31a6691ffffffff0e95b6c115000000001976a914ee0f2fc3f72869b99e718ae9f82b258403a3723d88acb8fd3600000000001976a9146a1170659b186ce6de882d5ee7e41376a7bc05bb88ac4dc20a48000000001976a914ac109ce63bae36207030ffe46bef21de215991a588ac31a41401000000001976a9147ba9ece5596aa5346c8a725c0f2c05fec4ad049088ac0ad71602000000001976a914123035ca0c63664622af259d2932d4a1f012f72588ac9f591503000000001976a914b0380d29732f7621d21374c2b2fcfec58a57b86488ac77093802000000001976a9143ae699042b4476d84182a6ec763ab77fa557efea88acc8c85107000000001976a91408a9a28009c2843261c42dd66355dcab14165c6288acb18d134c000000001976a914a236a72df0b4714813921b0f0c6f72d78bafa11388ac8d522ed6000000001976a91415091b841ebd643414737a70ac7cbe5bd257f7d188acb85dff8d020000001976a914b1733153422d3e0a74788ac6c404ad09d0982a8188ac7a0d3e2d000000001976a91466d744aed4a45b390806bf407a9c6ba0387c773088acb27ceb28000000001976a914f5bb54384509cf53a5c8b1f5d64829c411fc20bf88ac56c9de33000000001976a914c2ea4d80b298aafb31729b2080a94370da3b4ba588ac00000000",
          "txid": "87039e311dfb46078c86cc5545bbccc0080f2f7d8602f72e2a5e728934d8386c",
          "version": 1,
          "locktime": 0,
          "vin": [
            {
              "txid": "15e59fa5a9e475aff8c38d20f438a7ab47d25bf6b59e7861ee2a0720defe9cf6",
              "vout": 0,
              "scriptSig": {
                "asm": "30440220430596867e0d83e46cfd7fd1da3fa45d853886782fd86e10d585b55c4df3459f02206daffdc1ca3c7e81150a3742332eda6efc5652e6693f4c1cb7408108b9ec665501 037c3581b0b7f09cf7286f351265a5cbb9b7f92f7e956297d26f455481b31a6691",
                "hex": "4730440220430596867e0d83e46cfd7fd1da3fa45d853886782fd86e10d585b55c4df3459f02206daffdc1ca3c7e81150a3742332eda6efc5652e6693f4c1cb7408108b9ec66550121037c3581b0b7f09cf7286f351265a5cbb9b7f92f7e956297d26f455481b31a6691"
              },
              "sequence": 4294967295
            }
          ],
          "vout": [
            {
              "value": 3.65016725,
              "n": 0,
              "scriptPubKey": {
                "asm": "OP_DUP OP_HASH160 ee0f2fc3f72869b99e718ae9f82b258403a3723d OP_EQUALVERIFY OP_CHECKSIG",
                "hex": "76a914ee0f2fc3f72869b99e718ae9f82b258403a3723d88ac",
                "reqSigs": 1,
                "type": "pubkeyhash",
                "addresses": [
                  "DSqqZ6YeQGDYJMuE2cfGGLiXP9zUgLCvbS"
                ]
              }
            },
            {
              "value": 0.03603896,
              "n": 1,
              "scriptPubKey": {
                "asm": "OP_DUP OP_HASH160 6a1170659b186ce6de882d5ee7e41376a7bc05bb OP_EQUALVERIFY OP_CHECKSIG",
                "hex": "76a9146a1170659b186ce6de882d5ee7e41376a7bc05bb88ac",
                "reqSigs": 1,
                "type": "pubkeyhash",
                "addresses": [
                  "DEow4H8Zd6MHgsmCfnGb4zQTqLcdmSRbEi"
                ]
              }
            },
            {
              "value": 12.08664653,
              "n": 2,
              "scriptPubKey": {
                "asm": "OP_DUP OP_HASH160 ac109ce63bae36207030ffe46bef21de215991a5 OP_EQUALVERIFY OP_CHECKSIG",
                "hex": "76a914ac109ce63bae36207030ffe46bef21de215991a588ac",
                "reqSigs": 1,
                "type": "pubkeyhash",
                "addresses": [
                  "DLptfY6dCroFoYCecFqMqkThxBTbDy3yAK"
                ]
              }
            },
            {
              "value": 0.18129969,
              "n": 3,
              "scriptPubKey": {
                "asm": "OP_DUP OP_HASH160 7ba9ece5596aa5346c8a725c0f2c05fec4ad0490 OP_EQUALVERIFY OP_CHECKSIG",
                "hex": "76a9147ba9ece5596aa5346c8a725c0f2c05fec4ad049088ac",
                "reqSigs": 1,
                "type": "pubkeyhash",
                "addresses": [
                  "DGQyDUY9KJgzmqKEA5JzL6Q1ghFfPnEMUg"
                ]
              }
            },
            {
              "value": 0.35051274,
              "n": 4,
              "scriptPubKey": {
                "asm": "OP_DUP OP_HASH160 123035ca0c63664622af259d2932d4a1f012f725 OP_EQUALVERIFY OP_CHECKSIG",
                "hex": "76a914123035ca0c63664622af259d2932d4a1f012f72588ac",
                "reqSigs": 1,
                "type": "pubkeyhash",
                "addresses": [
                  "D6oGTQfdEyvJpur6sYzWHtY3f5VVYiDtXJ"
                ]
              }
            },
            {
              "value": 0.51730847,
              "n": 5,
              "scriptPubKey": {
                "asm": "OP_DUP OP_HASH160 b0380d29732f7621d21374c2b2fcfec58a57b864 OP_EQUALVERIFY OP_CHECKSIG",
                "hex": "76a914b0380d29732f7621d21374c2b2fcfec58a57b86488ac",
                "reqSigs": 1,
                "type": "pubkeyhash",
                "addresses": [
                  "DMCrcYLVhKbSASxAocg6TVcu2VThT1XGcw"
                ]
              }
            },
            {
              "value": 0.37226871,
              "n": 6,
              "scriptPubKey": {
                "asm": "OP_DUP OP_HASH160 3ae699042b4476d84182a6ec763ab77fa557efea OP_EQUALVERIFY OP_CHECKSIG",
                "hex": "76a9143ae699042b4476d84182a6ec763ab77fa557efea88ac",
                "reqSigs": 1,
                "type": "pubkeyhash",
                "addresses": [
                  "DAWXybU4buhAPfkGKXvLT6DsfHrceBWV9b"
                ]
              }
            },
            {
              "value": 1.22800328,
              "n": 7,
              "scriptPubKey": {
                "asm": "OP_DUP OP_HASH160 08a9a28009c2843261c42dd66355dcab14165c62 OP_EQUALVERIFY OP_CHECKSIG",
                "hex": "76a91408a9a28009c2843261c42dd66355dcab14165c6288ac",
                "reqSigs": 1,
                "type": "pubkeyhash",
                "addresses": [
                  "D5vuADuL6Uumcn52EVWwQa8WmhXkXsRZnp"
                ]
              }
            },
            {
              "value": 12.76349873,
              "n": 8,
              "scriptPubKey": {
                "asm": "OP_DUP OP_HASH160 a236a72df0b4714813921b0f0c6f72d78bafa113 OP_EQUALVERIFY OP_CHECKSIG",
                "hex": "76a914a236a72df0b4714813921b0f0c6f72d78bafa11388ac",
                "reqSigs": 1,
                "type": "pubkeyhash",
                "addresses": [
                  "DKvoUhGXjsnbQ9oWueoAXsTeZ6zR1JcJN1"
                ]
              }
            },
            {
              "value": 35.93360013,
              "n": 9,
              "scriptPubKey": {
                "asm": "OP_DUP OP_HASH160 15091b841ebd643414737a70ac7cbe5bd257f7d1 OP_EQUALVERIFY OP_CHECKSIG",
                "hex": "76a91415091b841ebd643414737a70ac7cbe5bd257f7d188ac",
                "reqSigs": 1,
                "type": "pubkeyhash",
                "addresses": [
                  "D74Ke5wbcUs4NzbpvkCAJADUsG9LX3Bj4g"
                ]
              }
            },
            {
              "value": 109.7225772,
              "n": 10,
              "scriptPubKey": {
                "asm": "OP_DUP OP_HASH160 b1733153422d3e0a74788ac6c404ad09d0982a81 OP_EQUALVERIFY OP_CHECKSIG",
                "hex": "76a914b1733153422d3e0a74788ac6c404ad09d0982a8188ac",
                "reqSigs": 1,
                "type": "pubkeyhash",
                "addresses": [
                  "DMKN8wU889v54Ubi5wzi5BpGTgpBbzLrrf"
                ]
              }
            },
            {
              "value": 7.59041402,
              "n": 11,
              "scriptPubKey": {
                "asm": "OP_DUP OP_HASH160 66d744aed4a45b390806bf407a9c6ba0387c7730 OP_EQUALVERIFY OP_CHECKSIG",
                "hex": "76a91466d744aed4a45b390806bf407a9c6ba0387c773088ac",
                "reqSigs": 1,
                "type": "pubkeyhash",
                "addresses": [
                  "DEWsLvoAx58Z7XXUbUiBfo1CJVCZzV8Sgv"
                ]
              }
            },
            {
              "value": 6.86521522,
              "n": 12,
              "scriptPubKey": {
                "asm": "OP_DUP OP_HASH160 f5bb54384509cf53a5c8b1f5d64829c411fc20bf OP_EQUALVERIFY OP_CHECKSIG",
                "hex": "76a914f5bb54384509cf53a5c8b1f5d64829c411fc20bf88ac",
                "reqSigs": 1,
                "type": "pubkeyhash",
                "addresses": [
                  "DTYQW6vGBQWu1z3DGBks8ScpKj1FPNRDQT"
                ]
              }
            },
            {
              "value": 8.7023855,
              "n": 13,
              "scriptPubKey": {
                "asm": "OP_DUP OP_HASH160 c2ea4d80b298aafb31729b2080a94370da3b4ba5 OP_EQUALVERIFY OP_CHECKSIG",
                "hex": "76a914c2ea4d80b298aafb31729b2080a94370da3b4ba588ac",
                "reqSigs": 1,
                "type": "pubkeyhash",
                "addresses": [
                  "DNuiK7YdHeS8HdK5cKwvXT2KoUKfH3yqyi"
                ]
              }
            }
          ],
          "blockhash": "0000000001abec976cd3c32eb888e2e29147d02102616236e8bfbf83aceb1a05",
          "time": 1454313034,
          "blocktime": 1454313034
        }
    }
}
