{
	"connectBlocks": {
		"syncRanges": [
			{"lower": 851000, "upper": 851005}
		],
		"blocks": {
			"851005": {
				"height": 851005,
				"hash": "070187a8ff6f252d5c1477dcdf33efe774fcbdc81c14e08e6e2a9b5948633ea7",
				"noTxs": 2,
				"txDetails": [
               {
                 "hex": "01000000010000000000000000000000000000000000000000000000000000000000000000ffffffff06033dfc0c0101ffffffff0100000000000000000000000000",
                 "txid": "3fd860af5d7aeee494706169d6c3d925167e5d9d09d1abbb4f4ccfd1ee16a15f",
                 "version": 1,
                 "vin": [
                   {
                     "coinbase": "033dfc0c0101",
                     "sequence": 4294967295
                   }
                 ],
                 "vout": [
                   {
                     "value": 0.00000000,
                     "n": 0,
                     "scriptPubKey": {
                       "asm": "",
                       "hex": "",
                       "type": "nonstandard"
                     }
                   }
                 ],
               },
               {
                 "hex": "0100000001306e480118b10dab9828a7401d579190231eec424b7f082b438ba562fc2fea58010000004847304402207d483e908e184a11c8a429ea4e12317c1128f0b041bcee8a12f2ded3ec3196bd0220621ed94239456e8a0afb89ef4a4d7683a705022785ccd88de5ad37d16a55544c01ffffffff0300000000000000000000ff84494b000000232102df717f0f3f8bb8768e679c7366c6400f835aca48bcce9f64a38f9e1128b17c52ac00a3e111000000001976a914392fd1c28e035851a29058784fb6b5886dcc30c488ac00000000",
                 "txid": "7ee34d8e6f8297f62e806a3f7969674b57e5c69d1f893534e353dd7e599af684",
                 "version": 1,
                 "vin": [
                   {
                     "txid": "58ea2ffc62a58b432b087f4b42ec1e239091571d40a72898ab0db11801486e30",
                     "vout": 1,
                     "scriptSig": {
                       "asm": "304402207d483e908e184a11c8a429ea4e12317c1128f0b041bcee8a12f2ded3ec3196bd0220621ed94239456e8a0afb89ef4a4d7683a705022785ccd88de5ad37d16a55544c01",
                       "hex": "47304402207d483e908e184a11c8a429ea4e12317c1128f0b041bcee8a12f2ded3ec3196bd0220621ed94239456e8a0afb89ef4a4d7683a705022785ccd88de5ad37d16a55544c01"
                     },
                     "sequence": 4294967295
                   }
                 ],
                 "vout": [
                   {
                     "value": 0.00000000,
                     "n": 0,
                     "scriptPubKey": {
                       "asm": "",
                       "hex": "",
                       "type": "nonstandard"
                     }
                   },
                   {
                     "value": 3233.56000000,
                     "n": 1,
                     "scriptPubKey": {
                       "asm": "02df717f0f3f8bb8768e679c7366c6400f835aca48bcce9f64a38f9e1128b17c52 OP_CHECKSIG",
                       "hex": "2102df717f0f3f8bb8768e679c7366c6400f835aca48bcce9f64a38f9e1128b17c52ac",
                       "reqSigs": 1,
                       "type": "pubkey",
                       "addresses": [
                         "y7URP7ghyF1bNu15Zub6pawmjPRwUL4MXj"
                       ]
                     }
                   },
                   {
                     "value": 3.00000000,
                     "n": 2,
                     "scriptPubKey": {
                       "asm": "OP_DUP OP_HASH160 392fd1c28e035851a29058784fb6b5886dcc30c4 OP_EQUALVERIFY OP_CHECKSIG",
                       "hex": "76a914392fd1c28e035851a29058784fb6b5886dcc30c488ac",
                       "reqSigs": 1,
                       "type": "pubkeyhash",
                       "addresses": [
                         "y2CDfaS2JorBz6QhyRpKj6jbsywgwL2Wxs"
                       ]
                     }
                   }
                 ],
               }
				]
			}
		}
	},
	"handleFork": {
		"syncRanges": [
			{"lower": 851000, "upper": 851005}
		],
		"fakeBlocks": {
			"851001": {
				"height": 851001,
				"hash": "00000000000091c2f138f8e97dfda7256f8aee2d4ee4ad52cefbad837ca50a99"
			},
			"851002": {
				"height": 851002,
				"hash": "000000000001596f4fd5ba68aa7a7e09d1a28096ea520940080fb1c128ca13a4"
			}
		},
		"realBlocks": {
			"851003": {
				"height": 851004,
				"hash": "000000000000239eef9c547395bdedb12c05377479a00a6e85cc2eac2ba33e18"
			},
		}
	}
}
